:100000000C945D000C9485000C9485000C94850084
:100010000C9485000C9485000C9485000C9485004C
:100020000C9485000C9485000C9485000C9485003C
:100030000C9485000C9485000C9485000C9485002C
:100040000C941C020C9485000C948C020C94660297
:100050000C9485000C9485000C9485000C9485000C
:100060000C9485000C94850000000008000201003B
:100070000003040700000000000000000000000072
:10008000250028002B0000000000240027002A0083
:10009000040404040404040402020202020203032E
:1000A0000303030301020408102040800102040836
:1000B0001020010204081020860411241FBECFEF77
:1000C000D8E0DEBFCDBF11E0A0E0B1E0E6E7F9E0A7
:1000D00002C005900D92A63EB107D9F722E0A6EE28
:1000E000B1E001C01D92A039B207E1F710E0CDE503
:1000F000D0E004C02197FE010E94B304CC35D107A3
:10010000C9F70E94BE020C94B9040C94000090E060
:10011000FC01EC55FF4F249180579F4FFC018491C7
:10012000882399F090E0880F991FFC01EA57FF4F50
:10013000A591B491FC01E458FF4F859194918FB73C
:10014000F894EC91E22BEC938FBF0895AF92BF929D
:10015000CF92DF92EF92FF920F931F93CF93DF9393
:100160006C017B018B01040F151FEB015E01AE18C2
:10017000BF08C017D10759F06991D601ED91FC91E4
:100180000190F081E02DC6010995892B79F7C50111
:10019000DF91CF911F910F91FF90EF90DF90CF9063
:1001A000BF90AF900895FC01538D448D252F30E012
:1001B000842F90E0821B930B541710F0CF96089574
:1001C00001970895FC01918D828D981761F0A28DA1
:1001D000AE0FBF2FB11D5D968C91928D9F5F9F7367
:1001E000928F90E008958FEF9FEF0895FC01918D1D
:1001F000828D981731F0828DE80FF11D858D90E08A
:1002000008958FEF9FEF0895FC01918D228D892F26
:1002100090E0805C9F4F821B91098F73992708950E
:1002200083EF91E00E94040121E0892B09F420E092
:10023000822F089580E090E0892B29F00E94100120
:1002400081110C9400000895FC01A48DA80FB92F12
:10025000B11DA35ABF4F2C91848D90E001968F73EE
:100260009927848FA689B7892C93A089B1898C910D
:10027000837080648C93938D848D981306C002885C
:10028000F389E02D80818F7D80830895EF92FF9226
:100290000F931F93CF93DF93EC0181E0888F9B8DA9
:1002A0008C8D98131AC0E889F989808185FF15C063
:1002B0009FB7F894EE89FF896083E889F989808186
:1002C0008370806480839FBF81E090E0DF91CF9155
:1002D0001F910F91FF90EF900895F62E0B8D10E077
:1002E0000F5F1F4F0F731127E02E8C8D8E110CC0E6
:1002F0000FB607FCFACFE889F989808185FFF5CF31
:10030000CE010E942401F1CFEB8DEC0FFD2FF11DEA
:10031000E35AFF4FF0829FB7F8940B8FEA89FB896D
:1003200080818062CFCFCF93DF93EC01888D8823CB
:10033000B9F0AA89BB89E889F9898C9185FD03C048
:10034000808186FD0DC00FB607FCF7CF8C9185FF2D
:10035000F2CF808185FFEDCFCE010E942401E9CF4D
:10036000DF91CF91089590E0FC01E859FF4F24916F
:10037000FC01EC55FF4F3491FC01E057FF4FE49135
:10038000EE23C9F0222339F0233001F1A8F4213003
:1003900019F1223029F1F0E0EE0FFF1FE458FF4F72
:1003A000A591B4918FB7F894EC91611126C0309566
:1003B0003E233C938FBF08952730A9F02830C9F021
:1003C000243049F7809180008F7D03C080918000A8
:1003D0008F7780938000DFCF84B58F7784BDDBCFAC
:1003E00084B58F7DFBCF8091B0008F778093B00074
:1003F000D2CF8091B0008F7DF9CF3E2BDACFCF9353
:10040000DF93FC0101900020E9F73197AF01481B11
:10041000590BBC0183EF91E00E94A600EC0142E081
:1004200050E062E171E083EF91E00E94A6008C0F42
:100430009D1FDF91CF9108951F920F920FB60F92DB
:1004400011242F933F938F939F93AF93BF938091EA
:10045000EF019091F001A091F101B091F201309182
:10046000EE0123E0230F2D3758F50196A11DB11D94
:100470002093EE018093EF019093F001A093F1019E
:10048000B093F2018091EA019091EB01A091EC010F
:10049000B091ED010196A11DB11D8093EA019093E9
:1004A000EB01A093EC01B093ED01BF91AF919F914F
:1004B0008F913F912F910F900FBE0F901F90189525
:1004C00026E8230F0296A11DB11DD2CF1F920F92D5
:1004D0000FB60F9211242F933F934F935F936F9317
:1004E0007F938F939F93AF93BF93EF93FF9383EF8C
:1004F00091E00E942401FF91EF91BF91AF919F91F4
:100500008F917F916F915F914F913F912F910F90BC
:100510000FBE0F901F9018951F920F920FB60F925B
:1005200011242F938F939F93EF93FF93E0910302F6
:10053000F09104028081E0910902F0910A0282FDAB
:100540001BC0908180910C028F5F8F7320910D02F0
:10055000821741F0E0910C02F0E0ED50FE4F958FD4
:1005600080930C02FF91EF919F918F912F910F90AB
:100570000FBE0F901F9018958081F4CF789484B5AA
:10058000826084BD84B5816084BD85B5826085BD8F
:1005900085B5816085BD80916E00816080936E001D
:1005A000109281008091810082608093810080910F
:1005B00081008160809381008091800081608093C0
:1005C00080008091B10084608093B1008091B00080
:1005D00081608093B00080917A00846080937A007B
:1005E00080917A00826080937A0080917A008160A5
:1005F00080937A0080917A00806880937A001092CC
:10060000C10083E00E94870084E00E94870086E0AA
:100610000E94870088E00E94870089E00E9487008E
:100620008BE00E94870061E086E00E94B30161E0F8
:100630008BE00E94B301E0910302F091040282E09A
:100640008083E091FF01F09100021082E0910102AD
:10065000F09102028FEC808310920B02E09107026E
:10066000F091080286E08083E0910502F091060295
:10067000808180618083E0910502F0910602808193
:1006800088608083E0910502F09106028081806895
:100690008083E0910502F091060280818F7D808346
:1006A00085E191E00E94FF0184E391E00E94FF0157
:1006B00088E491E00E94FF0188E691E00E94FF013A
:1006C0008EE791E00E94FF0185E991E00E94FF0121
:1006D00086EA91E00E94FF0100E010E0C1E0D0E076
:1006E00083EF91E00E9404011816190664F483EF69
:1006F00091E00E94E2009093E9018093E80110925A
:10070000E7011092E6018091E8019091E9018F7D67
:1007100087359105F1F461E083E00E94B30160E068
:1007200084E00E94B30161E088E00E94B30160E0D0
:1007300089E00E94B3018091E6019091E701892B45
:1007400071F588EA91E00E94FF01D093E701C09320
:10075000E6018091E8019091E9018F7D8434910553
:10076000F1F461E083E00E94B30160E084E00E9464
:10077000B30160E088E00E94B30160E089E00E947C
:10078000B3018091E6019091E701892B71F58AEB25
:1007900091E00E94FF01D093E701C093E6018091B0
:1007A000E8019091E9018F7D85349105F1F461E0D4
:1007B00083E00E94B30160E084E00E94B30160E046
:1007C00088E00E94B30161E089E00E94B30180915A
:1007D000E6019091E701892B71F584EB91E00E948D
:1007E000FF01D093E701C093E6018091E801909169
:1007F000E9018F7D81349105F1F460E083E00E948E
:10080000B30160E084E00E94B30160E088E00E94F0
:10081000B30161E089E00E94B3018091E60190910B
:10082000E701892B71F58CEC91E00E94FF01D093D8
:10083000E701C093E6018091E8019091E9018F7D85
:100840008135910551F560E083E00E94B30161E0DC
:1008500084E00E94B30161E088E00E94B30160E09F
:1008600089E00E94B3018091E6019091E701892B14
:1008700041F486EC91E00E94FF01D093E701C09320
:10088000E6010115110509F42BCF0E941001882300
:1008900009F426CF0E94000023CF82349105C9F4C9
:1008A00060E083E00E94B30160E084E00E94B30155
:1008B00060E088E00E94B30160E089E00E94B3013B
:1008C0008091E6019091E701892BD9F687ED91E0BF
:1008D000D2CF83359105A9F660E083E00E94B30191
:1008E00061E084E00E94B30160E088E00E94B3010F
:1008F00061E089E00E94B3018091E6019091E701F7
:10090000892B09F0BECF8DED91E0B5CFE3EFF1E09B
:100910001382128288EE93E0A0E0B0E08483958396
:10092000A683B78384E091E09183808385EC90E097
:100930009587848784EC90E09787868780EC90E0A9
:10094000918B808B81EC90E0938B828B82EC90E09A
:10095000958B848B86EC90E0978B868B118E128E14
:10096000138E148E0895EE0FFF1F0590F491E02D65
:060970000994F894FFCF8A
:10097600000000004601A600D30093010401E20036
:10098600F6000D0A003220574845454C4544205292
:100996004F424F20434152542053494D554C4154E8
:1009A600494F4E00545950452028572920544F206E
:1009B600464F525741524400545950452028532916
:1009C60020544F204241434B57415244204F52201E
:1009D6005245564552534500545950452028412901
:1009E60020544F205455524E204C454654005459DD
:1009F60050452028442920544F205455524E205209
:100A06004947485400545950452028422920544FFC
:100A16002053544F50002000476F20466F72776175
:100A2600726421005348415250205249474854208D
:100A36005455524E21005348415250204C4546547D
:100A4600205455524E210053544F50210052657682
:060A5600657273652100CA
:00000001FF
